:100000000C9449050C94311C0C94581C0C94AA15A2
:100010000C94AA150C94AA150C9471050C94111942
:100020000C9471050C9471050C9471050C94CD140D
:100030000C9471050C9471050C9471050C94710568
:100040000C94891D0C9471050C94D8130C940A140B
:100050000C9471050C9471050C9471050C94710548
:100060000C94371A0C94710500000000003E5B4FA1
:100070005B3E3E6B4F6B3E1C3E7C3E1C183C7E3C08
:10008000181C577D571C1C5E7F5E1C00183C180016
:10009000FFE7C3E7FF0018241800FFE7DBE7FF30A6
:1000A000483A060E2629792926407F050507407F14
:1000B00005253F5A3CE73C5A7F3E1C1C08081C1C87
:1000C0003E7F14227F22145F5F005F5F06097F017D
:1000D0007F006689956A606060606094A2FFA29468
:1000E00008047E040810207E201008082A1C080836
:1000F0001C2A08081E101010100C1E0C1E0C303884
:100100003E3830060E3E0E06000000000000005F84
:1001100000000007000700147F147F14242A7F2AA0
:100120001223130864623649562050000807030062
:10013000001C2241000041221C002A1C7F1C2A08AE
:10014000083E080800807030000808080808000011
:1001500060600020100804023E5149453E00427F85
:10016000400072494949462141494D331814127FD4
:100170001027454545393C4A494931412111090774
:100180003649494936464949291E000014000000F5
:1001900040340000000814224114141414140041C7
:1001A00022140802015909063E415D594E7C121184
:1001B000127C7F494949363E414141227F414141BC
:1001C0003E7F494949417F090909013E4141517337
:1001D0007F0808087F00417F41002040413F017FA8
:1001E000081422417F404040407F021C027F7F0470
:1001F00008107F3E4141413E7F090909063E4151B9
:10020000215E7F09192946264949493203017F01A8
:10021000033F4040403F1F2040201F3F4038403FA9
:10022000631408146303047804036159494D4300BF
:100230007F4141410204081020004141417F0402F6
:10024000010204404040404000030708002054548D
:1002500078407F284444383844444428384444286B
:100260007F385454541800087E090218A4A49C78BE
:100270007F0804047800447D40002040403D007F1A
:100280001028440000417F40007C047804787C08FA
:100290000404783844444438FC18242418182424CE
:1002A00018FC7C08040408485454542404043F44B3
:1002B000243C4040207C1C2040201C3C4030403CE2
:1002C00044281028444C9090907C4464544C440042
:1002D00008364100000077000000413608000201A6
:1002E0000204023C2623263C1EA1A161123A404092
:1002F000207A38545455592155557941225454780F
:1003000042215554784020545579400C1E527212A7
:100310003955555559395454545939555454580030
:1003200000457C410002457D420001457C407D1234
:1003300011127DF0282528F07C5455450020545496
:100340007C547C0A097F4932494949323A44444441
:100350003A324A4848303A4141217A3A424020787C
:10036000009DA0A07D3D4242423D3D4040403D3C7D
:1003700024FF2424487E4943662B2FFC2F2BFF09A2
:1003800029F620C0887E0903205454794100004496
:100390007D413048484A32384040227A007A0A0A81
:1003A000727D0D19317D2629292F282629292926F4
:1003B00030484D4020380808080808080808382F39
:1003C00010C8ACBA2F102834FA00007B00000814C3
:1003D0002A142222142A14085500550055AA55AA99
:1003E00055AAFF55FF55FF000000FF00101010FF39
:1003F00000141414FF001010FF00FF1010F010F094
:10040000141414FC001414F700FF0000FF00FF1484
:1004100014F404FC141417101F10101F101F1414D0
:10042000141F00101010F0000000001F101010101A
:100430001F10101010F010000000FF10101010100E
:1004400010101010FF10000000FF140000FF00FF4C
:1004500000001F10170000FC04F4141417101714E8
:1004600014F404F40000FF00F7141414141414140A
:10047000F700F7141414171410101F101F1414147D
:10048000F4141010F010F000001F101F0000001FE7
:1004900014000000FC140000F010F01010FF10FF1A
:1004A000141414FF141010101F00000000F010FFAF
:1004B000FFFFFFFFF0F0F0F0F0FFFFFF0000000093
:1004C00000FFFF0F0F0F0F0F3844443844FC4A4A17
:1004D0004A347E02020606027E027E0263554941CC
:1004E000633844443C04407E201E2006027E020203
:1004F00099A5E7A5991C2A492A1C4C7201724C3017
:100500004A4D4D303048784830BC625A463D3E49ED
:100510004949007E0101017E2A2A2A2A2A44445F91
:10052000444440514A444040444A51400000FF0185
:1005300003E080FF000008086B6B08361236243693
:10054000060F090F060000181800000010100030F8
:1005500040FF0101001F01011E00191D1712003C80
:100560003C3C3C00000000002200FF210000010391
:10057000070F1F3F7F0080C0E0F0F8FCFEDB40A4C7
:10058000A62EAFDA0281DA1281DA02818F2000A171
:10059000C8D300408DAED580A800006000000000E8
:1005A00000000000000000000000E000000000006B
:1005B000000000000000000001E00000000000005A
:1005C0000000000000000001F0000000000000003A
:1005D00000000000000003F0000000000000000028
:1005E000000000000007F000000000000000000014
:1005F0000000000007F800000000000000000000FC
:100600000000000FF800000003C0007E000001E0C1
:10061000007F0FF800000003C000FE000001E000B2
:10062000FFEFF800000003C000FE000001E000FF43
:10063000FFF800000003C000F00000000F007FFE84
:100640007FC0000003C000F00000000F003FFE7FED
:10065000F83FF1FBCFFCFEF3BC3DEFE01FFE7FFF58
:100660007FFBFFDFFEFEFFBC3DEFE01FC6FFFF7F0D
:10067000FBFFDFFEFEFFBC3DEFE00FE3C7FE787B34
:10068000C3DE1EF0FFBC3DEF0007FF87FC787BC395
:10069000DE1EF0F83C3DEF0001FFFFF0007BC3C021
:1006A0001EF0F03C3DEF0001F37FE03FFBC3CFFEC7
:1006B000F0F03C3DEF0003E33F807FFBC3DFFEF043
:1006C000F03C3DEF0007E73C00787BC3DE1EF0F016
:1006D0003C3DEF0007FFBE00787BC3DE1EF0F03C20
:1006E0003DEF0007FFFE00787BC3DE1EF0F03C3DCF
:1006F000EF000FFFFE007FFBFFDFFEF0F03FFDEF9E
:10070000E00FFFFF007FFBFFDFFEF0F03FFDEFE0BB
:100710000FF9FF003E79F9CF9EF0F01F3DE7E01F93
:10072000F1FF0000000000000000000000001F803A
:10073000FF007FFFFFFFFFFFFFFFFFFFE01C007FC9
:10074000007FFFFFFFFEB46D888D18E000001F00E2
:100750007FFFFFFFFE95AD7DB577E000000F007FC6
:10076000FFFFFFFEA5AD9D8D19E0000006007FFF95
:10077000FFFFFEB5ADEDB57EE0000000000001809A
:1007800000000000000000000003800000000000E6
:100790000000000007C0000000000000000000078B
:1007A000C00000000000000000000FC000000000BA
:1007B00000000000001FE00000000000000000003A
:1007C0001FE00000000000000000003FE00000000B
:1007D0000000000000003FF00000000000000000EA
:1007E000007FF0000000000000001FF87FF0000014
:1007F00000000000003FFE7FF0000000000000004D
:100800003FFF7FF0000000000000001FFFFBE00042
:100810000000000000000FFFF9FFC0000000000012
:10082000000FFFF9FFF800000000000007FFF1FFD4
:10083000FF00000000000003FC73FFFF80000000C9
:10084000000001FE3FFFFF80000000000000FF1ECF
:100850000FFF000000000000007FFE1FFC000000F2
:10086000000000003FFFFFF8000000000000000F44
:10087000DFFFE0000000000000001F19FFC00000C3
:1008800000000000003F3CFF0000000000000000EE
:100890007E7CF800000000000000007FFE7C00006D
:1008A000000000000000FFFFFC000000000000004E
:1008B00000FFFFFE0000000000000000FFFFFE0040
:1008C00000000000000001FFEFFE0000000000003B
:1008D0000001FFCFFE0000000000000003FF07FE44
:1008E0000000000000000003FC07FE000000000004
:1008F000000003F003FE0000000000000001800083
:10090000FE000000000000000000007E000000006B
:100910000000000000003E00000000000000000099
:10092000000C000000000000078000FC000003C075
:10093000000000078001FC000003C00000000780E9
:1009400001FC000003C0000000078001E00000007F
:100950001E000000078001E00000001E007FE3F79A
:100960009FF9FDE7787BDFC0FFF7FFBFFDFDFF7854
:100970007BDFC0FFF7FFBFFDFDFF787BDFC0F0F737
:1009800087BC3DE1FF787BDE00F0F787BC3DE1F0FE
:10099000787BDE0000F787803DE1E0787BDE007F3A
:1009A000F7879FFDE1E0787BDE00FFF787BFFDE181
:1009B000E0787BDE00F0F787BC3DE1E0787BDE008D
:1009C000F0F787BC3DE1E0787BDE00F0F787BC3DC7
:1009D000E1E0787BDE00FFF7FFBFFDE1E07FFBDFBA
:1009E000C0FFF7FFBFFDE1E07FFBDFC07CF3F39FBB
:1009F0003DE1E03E7BCFC0000000000000000000B1
:100A00000000FFFFFFFFFFFFFFFFFFFFC0FFFFFF33
:100A1000FFFD68DB111A31C0FFFFFFFFFD2B5AFB02
:100A20006AEFC0FFFFFFFFFD4B5B3B1A33C0FFFFC8
:100A3000FFFFFD6B5BDB6AFDC002000000080002E7
:100A40000100000304070000000000000000010294
:100A5000040810204080010204081020010204084C
:100A6000102004040404040404040202020202022A
:100A700003030303030300000000250028002B00EC
:100A800000000000240027002A003A14EB1B851DFB
:100A90002C1C11241FBECFEFD8E0DEBFCDBF11E06C
:100AA000A0E0B1E0ECE3F1E402C005900D92AA3DB4
:100AB000B107D9F724E0AAEDB1E001C01D92AC3135
:100AC000B207E1F715E0C8E4D5E004C02197FE01C4
:100AD0000E945E1FC534D107C9F70E9469140C94A7
:100AE00091200C9400000E94852080E090E0089501
:100AF00008952F923F924F925F926F927F928F92C2
:100B00009F92AF92BF92CF92DF92EF92FF920F939C
:100B10001F93CF93DF9300D000D000D0CDB7DEB7C6
:100B20002C017E836D836A015901C801FC82EB822E
:100B30004801841A950A97FE03C091948194910804
:100B400035012D813E81621A730A77FE03C07194CC
:100B500061947108681479045CF43A2D2B2D5C01C2
:100B6000832F922F3D812E81DE82CD82C32ED22E05
:100B7000AD81BE81AA16BB065CF43C2D2D2D6C0107
:100B8000832F922F3D812E81BE82AD82A32EB22E65
:100B900085012D813E81021B130B1C012C183D0881
:100BA00037FE03C0319421943108780117FF03C048
:100BB0003FEFE31AF30AF594E794C816D9062CF030
:100BC0008FEF9FEF9A83898304C0A1E0B0E0BA83DE
:100BD000A9832D813E81A216B30624F1D201ED91A5
:100BE000FC910484F585E02D2B813C816814790407
:100BF00024F44D815E81B60103C0A6016D817E8122
:100C0000C2010995E218F308F7FE06C029813A816E
:100C1000C20ED31EE00EF11E8D819E8101969E8331
:100C20008D83D7CF26960FB6F894DEBF0FBECDBF0B
:100C3000DF91CF911F910F91FF90EF90DF90CF90B8
:100C4000BF90AF909F908F907F906F905F904F90EC
:100C50003F902F900895DC01ED91FC910084F18587
:100C6000E02D09940F931F93DC01ED91FC91048C0E
:100C7000F58DE02D09951F910F9108950F931F9306
:100C8000DC01ED91FC91068CF78DE02D09951F910B
:100C90000F910895EF92FF920F931F93DC01ED9156
:100CA000FC9100A0F1A1E02D09951F910F91FF90FB
:100CB000EF90089508958F929F92AF92BF92CF9236
:100CC000DF92EF92FF920F931F93CF93DF93EC018C
:100CD0005B014A0169017801E881F9810284F385A9
:100CE000E02D0995C80CD91C860101501109E88135
:100CF000F9810488F589E02D9501A401B501CE01A3
:100D00000995E881F9810688F789E02DCE01DF9108
:100D1000CF911F910F91FF90EF90DF90CF90BF90F8
:100D2000AF909F908F9009948F929F92AF92BF92B5
:100D3000CF92DF92EF92FF920F931F93CF93DF93A7
:100D4000EC015B014A016901E881F9810284F385C4
:100D5000E02D099595012C0D3D1D21503109E881AB
:100D6000F9810488F589E02D78018401A401B50199
:100D7000CE010995E881F9810688F789E02DCE0139
:100D8000DF91CF911F910F91FF90EF90DF90CF9067
:100D9000BF90AF909F908F9009944F925F926F9207
:100DA0007F928F929F92AF92BF92CF92DF92EF92FB
:100DB000FF920F931F93CF93DF936C012B015A0186
:100DC00039014801DC01ED91FC910284F385E02DAD
:100DD0000995E201640C751CD601ED91FC91C615D4
:100DE000D7055CF40088F189E02D87019401A50105
:100DF000BE01C60109952196EFCF0688F789E02D3F
:100E0000C601DF91CF911F910F91FF90EF90DF907E
:100E1000CF90BF90AF909F908F907F906F905F909A
:100E20004F900994EF92FF920F931F93DC011A9653
:100E30000D911C911B9718962D913C911997ED914E
:100E4000FC9100A0F1A1E02D7B0140E050E060E0CA
:100E500070E009951F910F91FF90EF9008958F9288
:100E60009F92AF92BF92CF92DF92EF92FF920F9339
:100E70001F93CF93DF934C016B015A01E901DC0111
:100E8000ED91FC916217730781F40417150724F4A0
:100E90008B2D5801042F182F0A191B0998012F5F59
:100EA0003F4F048CF58DE02D12C04017510709F516
:100EB0002617370724F48D2D6901C62FD82F9E01E0
:100EC0002C193D092F5F3F4F068CF78DE02D8701D0
:100ED000A501B601C4010995DF91CF911F910F9132
:100EE000FF90EF90DF90CF90BF90AF909F908F904A
:100EF00008950284F385E02D0995D401ED91FC91CC
:100F00000488F589E02D9E01A501B601C40109956B
:100F1000D401ED91FC910688F789E02DC401DF91A1
:100F2000CF911F910F91FF90EF90DF90CF90BF90E6
:100F3000AF909F908F9009946F927F928F929F9223
:100F4000AF92BF92CF92DF92EF92FF920F931F93D7
:100F5000CF93DF93EC014B015A0169013801E8811D
:100F6000F9810284F385E02D0995E881F9810288F1
:100F7000F389E02D87019601A501B401CE01099501
:100F8000A501460D571D41505109E881F98102889C
:100F9000F389E02D9601B401CE010995E881F9812C
:100FA0000088F189E02D9301A501B401CE010995D6
:100FB000C80CD91CB60161507109E881F98100881B
:100FC000F189E02D9301A501CE010995E881F98110
:100FD0000688F789E02DCE01DF91CF911F910F9107
:100FE000FF90EF90DF90CF90BF90AF909F908F9049
:100FF0007F906F9009940895FC016370668B8481E3
:10100000958126813781613039F0633029F09187ED
:101010008087338722870895318720879387828747
:101020000895FC01138212828FE091E09183808306
:1010300075836483578346837187608753874287AC
:10104000168A158614861786168681E0858B848B12
:101050002FEF3FEF338B228B318B208B878B108EC2
:10106000128E118E08953F924F925F926F927F92EF
:101070008F929F92AF92BF92CF92DF92EF92FF92A8
:101080000F931F93CF93DF93CDB7DEB72A970FB699
:10109000F894DEBF0FBECDBF5C017E836D835887A1
:1010A0004F8329013701DC01ED91FC910284F38526
:1010B000E02D0995C801079697FD07969C0193E0DE
:1010C000359527959A95E1F73A832983812C912CC0
:1010D000E12CF12C312C8F8198858E0D9F1D9C83E6
:1010E0008B83E614F7040CF03DC01A861986A98597
:1010F000BA85A017B10774F5CD0187709927892BA0
:1011000011F0330C0EC0E985FA85F7FD379683E0C0
:10111000F595E7958A95E1F7E80DF91DE40DF51DC4
:10112000349037FE11C0D501ED91FC910484F58512
:10113000E02D96014B815C816D817E8189859A8548
:10114000680F791FC5010995A985BA851196BA87D7
:10115000A987CDCFBFEFEB1AFB0A29813A81820E16
:10116000931EB9CFD501ED91FC910688F789E02D4A
:10117000C5012A960FB6F894DEBF0FBECDBFDF9132
:10118000CF911F910F91FF90EF90DF90CF90BF9084
:10119000AF909F908F907F906F905F904F903F9017
:1011A00009942F923F924F925F926F927F928F920B
:1011B0009F92AF92BF92CF92DF92EF92FF920F93E6
:1011C0001F93CF93DF93CDB7DEB76B970FB6F8942D
:1011D000DEBF0FBECDBF9B8F8A8F2B015A83498301
:1011E000D22E198708874701AB82DC0159962D91D1
:1011F0003C915A972115310509F000C118968D913F
:101200009C911997681779070CF0E7C11A968D9190
:101210009C911B97481759070CF0DFC12C2C312CDF
:10122000FB0126E0C29EE00DF11D1124FD87EC8735
:101230001E161F060CF0D1C14A2D50E05B874A876D
:1012400083E0440F551F8A95E1F75F874E878981B8
:101250009A81840F951F181619060CF0BEC1589676
:101260008C91811104C06FEA6D1508F4D394AA8D96
:10127000BB8DED91FC9111970284F385E02DCD019A
:101280000995B5E0DB9EC0011124EC2DF0E0F98B4F
:10129000E88B92012B5F3F4F3B8B2A8B32015D82A3
:1012A0004C82AC01441955095D8B4C8B7B81672FB7
:1012B00070E07F8B6E8B89819A810896998F888FD9
:1012C000EC89FD89E60DF71DE859FF4FD490A981FF
:1012D000BA81BF83AE835D01D0FE16C0AA8DBB8DDF
:1012E000ED91FC91B1E0CB1209C02B81213031F49A
:1012F0000484F585E02D2885398519C00684F78595
:10130000E02DE884F9841DC04885598548155905A4
:1013100011F1AA8DBB8DED91FC91B1E0CB120DC006
:101320002B81213051F40484F585E02D9401A50131
:10133000B3018A8D9B8D09950EC00684F785E02D3B
:1013400074010A851B8591014E815F816C817D81CD
:101350008A8D9B8D0995D6944E815F816E897F8998
:10136000460F571F5F834E837FEFA71AB70A888DFA
:10137000998DA816B90609F0AFCFAC81BD81E88977
:10138000F989AE0FBF1FBD83AC83FFEF6F1A7F0AD1
:101390002A893B896216730609F092CF48855985E0
:1013A0004815590509F4F7C0AA8DBB8DED91FC9144
:1013B000B1E0CB1212C02B81213079F4B2016B5F06
:1013C0007F4F0088F189E02D840128E030E04981D9
:1013D0005A818A8D9B8D0995DEC06C857D85621949
:1013E00073090684F785E02D74010E851F85910130
:1013F00049815A818A8D9B8D0995CDC0F90134961A
:10140000E491DE1AF901329685919491B7E0DB9E62
:10141000800D911D1124F90125913491398B288B70
:10142000FC0125903490FC01329674903196A49082
:10143000329694903196B49031E03C1518F04B817F
:10144000423068F0692D092C000C770B7D836C838A
:101450008B2D0B2C000C990B9F838E8304C01F8255
:101460001E821D821C82AA8DBB8DED91FC9111976D
:101470000284F385E02DCD010995612CD12C812CBE
:10148000FB81EF2FF0E0FB87EA872C2D30E03D87D2
:101490002C8749815A814B0D511DB7FC5A955D8BA4
:1014A0004C8BB201690D711D97FC7A957F8B6E8B09
:1014B0008A1408F070C0282D30E04E815F81420F01
:1014C000531FAA85BB85A49FC001A59F900DB49F03
:1014D000900D1124E981FA81E80FF91FFF87EE874B
:1014E000862D912C4C895D89420F531F5B8B4A8B53
:1014F000971408F04DC0BB24B394B80E877041F424
:10150000C1010196E889F989E20DF31DD4901C010F
:10151000D7FE3AC051E0C51216C06B81613099F414
:10152000AA8DBB8DED91FC9111970484F585E02D7A
:10153000288539854A895B896E897F89690D711D86
:10154000CD01099521C08C819D81890D911DEC856E
:10155000FD858E9FB0018F9F700D9E9F700D112491
:10156000640D751DAA8DBB8DED91FC9111970684BC
:10157000F785E02DE884F9840A851B852C853D8557
:101580004E855F85CD010995DD0C93948B2DB0CFF1
:10159000670C83948DCFAA8DBB8DED91FC91119733
:1015A0000688F789E02DCD016B960FB6F894DEBF63
:1015B0000FBECDBFDF91CF911F910F91FF90EF90A4
:1015C000DF90CF90BF90AF909F908F907F906F9063
:1015D0005F904F903F902F9009946B960FB6F894C0
:1015E000DEBF0FBECDBFDF91CF911F910F91FF9056
:1015F000EF90DF90CF90BF90AF909F908F907F90B3
:101600006F905F904F903F902F9008958F929F9290
:10161000AF92CF92EF92FF920F931F93CF93DF93EE
:10162000EC01262F898D9A8D009709F042C06A300F
:1016300059F41D861C862D898E859F8538E0239F51
:10164000800D911D112443C06D3009F4AAC08F890B
:101650008823C9F03C898C859D8546E0349F800DA8
:10166000911D1124488559854817590764F41D8632
:101670001C863D898E859F8548E0349F800D911D95
:1016800011249F878E87EA88FB88088919894E85EF
:101690005F856C857D85AD88CC88CE010E94D108A0
:1016A0002C898C859D8536E0239F800D911D11240A
:1016B0003EC06A3079F41D861C862D89FC01369661
:1016C000E4918E859F852E9F800D911D11249F870B
:1016D0008E8767C06D3009F464C0FC013496349184
:1016E000631708F45EC03196E491E61708F459C018
:1016F000462F431B342FFC0132968590949047E08F
:10170000349F800C911C1124F4013296349131964F
:10171000E491332311F0E1110DC0F4013496E4910A
:101720002C898C859D85E29F800D911D11249D87BC
:101730008C8737C0F401359644915F89552319F1A0
:101740005C89E32FF0E0E40FF11D47FDFA955E9F01
:10175000B0015F9F700D11244C855D85460F571FAA
:10176000688579856417750774F41D861C863D8924
:10177000FC013696E4918E859F853E9F800D911DDC
:1017800011249F878E87EA88FB88088919894E85EE
:101790005F856C857D85AD88CC88CE010E94D1089F
:1017A000BCCF81E090E0DF91CF911F910F91FF902E
:1017B000EF90CF90AF909F908F900895611101C0EE
:1017C00061E0FC01648B411101C041E0FC01458BEB
:1017D0000895462F0C94DE0B8091E302882361F07C
:1017E0009FB7F8942091E3028091E102213019F42F
:1017F0008DBB9FBF08958FBF0895FC0177FDB9C0D1
:1018000080859185681779070CF0B3C057FDB1C08A
:1018100082859385481759070CF008958689823090
:1018200079F484819581DC01A61BB70BBD01615061
:10183000710986819781DC01A41BB50BAD010EC037
:10184000833009F084C064277527CA01862797274B
:101850006827792746815781481B590B4150510908
:101860002130310531F048F12230310509F44AC008
:101870000895CA0157FD07969C01A3E03595279569
:10188000AA95E1F7A481B5812A9FC0012B9F900DF5
:101890003A9F900D1124680F791F078CF0A1E02D5D
:1018A000E60FF71F4770552781E090E001C0880FD1
:1018B0004A95EAF79081892B48C0CA0157FD0796DF
:1018C0009C0193E0359527959A95E1F7A481B58120
:1018D0002A9FC0012B9F900D3A9F900D1124680FF5
:1018E000791F078CF0A1E02DE60FF71F47705527F1
:1018F00081E090E001C0880F4A95EAF780959081D9
:10190000892323C0CA0157FD07969C0183E03595C2
:1019100027958A95E1F7A481B5812A9FC0012B9F65
:10192000900D3A9F900D1124680F791F078CF0A13C
:10193000E02DE60FF71F4770552781E090E001C0CA
:10194000880F4A95EAF7908189278083089581302E
:1019500009F086CF64277527462757276427752700
:1019600084819581DC01A61BB70BBD016150710913
:1019700077CF08952091E302222399F04FB7F8948E
:101980002091E302213059F42DB32093E1023DB3BD
:101990002091E202209523232DBB4FBF02C040932C
:1019A000E1028CBD9DBD08958EBD00000DB407FE03
:1019B000FDCF8EB508954F925F926F927F928F9276
:1019C0009F92AF92BF92CF92DF92EF92FF920F93CE
:1019D000CF93DF93CDB7DEB73C01290150E070E033
:1019E0000E9411088BE391E0F30191838083148EB0
:1019F000138E4114510411F0C20102C089EB93E02F
:101A0000F301968F858F10A2178E8FEF84A385A385
:101A100086A387A300A780E585AB16AAC7AAD0AE88
:101A2000E1AEF2AE83AE94AEA5AEB6AEDF91CF918D
:101A30000F91FF90EF90DF90CF90BF90AF909F906D
:101A40008F907F906F905F904F9008952BE331E0DF
:101A5000FC0131832083878D90A1009711F00C94B5
:101A6000FC1F08951F93CF93DF93FC01858D968D06
:101A7000009719F1162FEF0161A1062E000C770BCC
:101A80000E946D1D8D8D9E8DDC01ED91FC9101906C
:101A9000F081E02D60E009958D8D9E8DDC01ED914A
:101AA000FC910190F081E02D612F09958D8D9E8D27
:101AB000DF91CF911F910C94821DA5A5B6A59C9195
:101AC00083A9809589238C93838D948D892B31F004
:101AD000862FDF91CF911F910C94D40C28E030E039
:101AE00080E8A1A5B2A591A9462F482319F04C91F1
:101AF000942B03C04C91909594239C93A3A5B4A5DB
:101B00004C9192A9942B9C93A3A5B4A54C9192A916
:101B1000909594239C9386952150310911F7DF917C
:101B2000CF911F9108951F93CF93DF93EC01162F50
:101B30008D8D9E8D009739F04FA958AD69AD7AAD66
:101B40000E945F1D0FC08B8D9C8D892B21F08DA96C
:101B50009EA90E94BA0CEFA5F8A990818CA9809546
:101B600089238083111102C066EA01C067EACE01B1
:101B70000E94320D8D8D9E8D009749F04BAD5CAD6E
:101B80006DAD7EADDF91CF911F910C945F1DEFA5E0
:101B9000F8A990818CA9892B80838B8D9C8D892BB2
:101BA00029F0DF91CF911F910C94EC0BDF91CF9135
:101BB0001F910895DF92EF92FF920F931F93CF939F
:101BC000DF93EC01D62E072F142F8D8D9E8D00975D
:101BD00009F448C069A1062E000C770B0E946D1D08
:101BE0008D8D9E8DDC01ED91FC910190F081E02DB9
:101BF00060E00995ED2CF02E01E08D8D9E8D112376
:101C000041F10032A8F00E94821D69A1062E000C4D
:101C1000770B8D8D9E8D0E946D1D8D8D9E8DDC01AF
:101C2000ED91FC910190F081E02D60E0099501E0DB
:101C30008D8D9E8DF7016491DC01ED91FC910190F9
:101C4000F081E02D09950F5F1150F70131967F016A
:101C5000D4CFDF91CF911F910F91FF90EF90DF9044
:101C60000C94821DEDA5FEA590818BA980958923FA
:101C70008083E62EF72E112379F1F70184912B8DC5
:101C80003C8D232B39F00E94D40C1150C7010196D2
:101C90007C01F1CF28E030E040E8E9A5FAA599A958
:101CA000582F542319F05081952B03C050819095E3
:101CB00095239083EBA5FCA550819AA9952B908341
:101CC000EBA5FCA550819AA9909595239083469504
:101CD0002150310911F7D9CFDF91CF911F910F9189
:101CE000FF90EF90DF900895FC01868197819C0121
:101CF000295F3F4F37FF02C0295F3F4F83E0359593
:101D000027958A95E1F784819581289FA001299FD5
:101D1000500D389F500D112460E070E0878D90A128
:101D20000C948A208F929F92AF92BF92CF92DF92B3
:101D3000EF92FF920F931F93CF93DF93EC01862EC8
:101D4000B42EA22E902E8F8D98A1892BE9F42E818E
:101D50003F81C901079697FD079623E095958795E2
:101D60002A95E1F72C813D81AC01429FC001439F40
:101D7000900D529F900D11240E94641F98A38F8F85
:101D8000892B11F480E095C1CE010E94740E8E81E2
:101D90009F816C817D8181329105E4F0AC014054DA
:101DA000510957FF02C04F5F5F4F559547956255E8
:101DB000710977FF02C06F5F7F4F75956795CC24DF
:101DC000C394D12C80E4E82EF12C02E510E029E741
:101DD00037E01BC0AC014052510957FF02C04F5FB2
:101DE0005F4F559547956357710977FF02C06F5F45
:101DF0007F4F75956795CC24C394D12CA0E2EA2E31
:101E0000F12C03E710E029E935E0CE010E94330808
:101E10008AA28D8D9E8D009799F0B11007C02E81FA
:101E20003F812032310521F42CE303C02B2D01C06A
:101E30002DE329A3992009F439C10E944D1D79C0D1
:101E400061E08EA10E94981E61E08FA10E94981E01
:101E50008EA1082E000C990BFC01EE59F54FE49170
:101E6000F0E0EE0FFF1FEA58F54F259134913EA7A1
:101E70002DA7FC01E25BF54FE491EBAB8FA1082E9F
:101E8000000C990BFC01EE59F54FE491F0E0EE0FD8
:101E9000FF1FEA58F54FA591B491B8ABAFA7FC016D
:101EA000E25BF54FE491ECAB8C91E82BEC938B8DDE
:101EB0009C8D892B31F0992009F43BC00E94241697
:101EC00038C061E08CA10E94981E61E08DA10E9443
:101ED000981E8CA1082E000C990BFC01EE59F54FB1
:101EE000E491F0E0EE0FFF1FEA58F54F2591349191
:101EF0003AA729A7FC01E25BF54FE491E9AB8DA17C
:101F0000082E000C990BFC01EE59F54FE491F0E01E
:101F1000EE0FFF1FEA58F54FA591B491BCA7ABA7F0
:101F2000FC01E25BF54FE491EAAB8C91E095E8238C
:101F3000EC93AA20F1F088A587FD1BC061E00E9408
:101F4000981E61E088A50E94D41E61E070E080E0E8
:101F500090E00E94F81D60E088A50E94D41E6AE00F
:101F600070E080E090E00E94F81D61E088A50E948A
:101F7000D41E8D8D9E8D009739F04FA958AD69AD57
:101F80007AAD0E945F1D0FC08B8D9C8D892B21F037
:101F90008DA99EA90E94BA0CEFA5F8A990818CA9E1
:101FA00080958923808344E065E975E0CE010E9435
:101FB000DA0D6E816150CE010E94320D44E061E97C
:101FC00075E0CE010E94DA0D8AA1813011F460E142
:101FD00001C064E1CE010E94320D44E06DE875E07D
:101FE000CE010E94DA0D8C819D8180389105E1F44B
:101FF0008E819F818032910539F444E069E875E073
:10200000CE010E94DA0D26C08034910519F543E017
:1020100066E875E0CE010E94DA0D8AA1813011F4E4
:102020006FE915C06FEC13C08036910599F48E816D
:102030009F81409779F443E063E875E0CE010E9408
:10204000DA0D8AA1813011F460E101C06FEACE019E
:102050000E94320D69EDCE010E94320D8AA18130BD
:1020600011F462E201C061EFCE010E94320D46E040
:102070006DE775E0CE010E94DA0D8D8D9E8D009783
:1020800039F04BAD5CAD6DAD7EAD0E945F1D0CC0F7
:10209000EFA5F8A990818CA9892B80838B8D9C8DCD
:1020A000892B11F00E94EC0B81E003C0A11043CFFB
:1020B00064CFDF91CF911F910F91FF90EF90DF9050
:1020C000CF90BF90AF909F908F9008950F931F93E4
:1020D000CF93DF93DC0157FD64C016968D919C91E0
:1020E0001797481759070CF05CC077FF04C0260FFC
:1020F000371F60E070E01496CD91DC911597CB010D
:10210000820F931FC817D9071CF49E01261B370B9B
:10211000121613060CF045C0FA0157FD3796CF0191
:10212000E3E095958795EA95E1F78C9FF0018D9F07
:10213000F00D9C9FF00D11246E0F7F1F5F96ED91A7
:10214000FC919097E60FF71F4770552781E090E0CC
:1021500001C0880F4A95EAF7482F0130110539F080
:1021600078F002301105E9F42E0F3F1F13C02E0F37
:102170003F1FE217F307A9F08081842B8193F9CFE9
:1021800080952E0F3F1FE217F30759F09081982397
:102190009193F9CFE217F30721F08081842781938F
:1021A000F9CFDF91CF911F910F910895EF92FF9298
:1021B0000F931F93CF93DF93EC0177FDA5C0EC80C5
:1021C000FD806E157F050CF09FC057FF04C0240FE3
:1021D000351F40E050E08E819F81FA01E20FF31F2E
:1021E0008E179F071CF49C01241B350B1216130637
:1021F0000CF08AC0922F842F8695869586958E9DA9
:10220000D0018F9DB00D11246A0F7B1FAF8DB8A137
:10221000A60FB71F4770B1F188E0841B482F682FC5
:1022200070E0FB01EB58FA4FE491281798F4621B19
:1022300071092FEF30E002C0359527956A95E2F7D6
:10224000E2230130110549F078F00230110509F060
:102250005BC00EC00130110519F48C91E82B0AC047
:102260000130110508F049C0E0958C91E82302C0C7
:102270008C91E827EC93941708F446C02C813D819B
:10228000A20FB31FE92FE41BE830F8F0023011056C
:1022900061F48E2F9C9190959C932C813D81A20F8F
:1022A000B31F88508830B0F70FC081E001151105C9
:1022B00009F480E081959E2F8C932C813D81A20FA3
:1022C000B31F98509830C0F7E770EE23E9F0F0E0C4
:1022D000E359FA4FE4910130110539F048F002302A
:1022E000110591F48C91E82706C08C91E82B03C06E
:1022F000E0958C91E823EC9307C00230110509F4B6
:10230000B7CFAE0DBF1DBECFDF91CF911F910F9103
:10231000FF90EF9008950F931F93DC015696EC9178
:102320005697E23061F0E33009F1E13081F514961F
:10233000ED91FC911597E41BF50B319723C0DC015F
:102340001496ED91FC911597DF01A61BB70BBD010B
:10235000DC011696ED91FC911797DF01A41BB50BDC
:10236000AD0141505109621B730B11C0FA01DC0130
:1023700016964D915C911797DA01A61BB70BBD011C
:10238000621B730BAB01BF010E94D61002C00E94FA
:1023900066101F910F9108950F931F93DC015696BD
:1023A000EC915697E23069F0E33011F1E13089F5B4
:1023B0001496ED91FC911597E41BF50BE21BF30BC2
:1023C00023C0DC011496ED91FC911597DF01A61B4B
:1023D000B70BBD0161507109DC011696ED91FC91BE
:1023E0001797DF01A41BB50BAD01421B530B11C0A6
:1023F000FA01DC0116964D915C911797DA01A61B44
:10240000B70BBD0161507109AB01BF010E9466109D
:1024100002C00E94D6101F910F910895CF92DF92B3
:10242000EF92FF920F931F93CF93DF93EC018D8D6B
:102430009E8D009739F04FA958AD69AD7AAD0E94D5
:102440005F1D0FC08B8D9C8D892B21F08DA99EA9BE
:102450000E94BA0CEFA5F8A990818CA980958923D8
:10246000808345E068E675E0CE010E94DA0D6C815C
:102470006150CE010E94320D2E813F81C901079625
:1024800097FD079623E0959587952A95E1F72C818E
:102490003D81829F7001839FF00C929FF00C11246C
:1024A0000F8D18A18D8D9E8DE00EF11E009709F401
:1024B0003FC069A1062E000C770B0E946D1D8D8D0B
:1024C0009E8DDC01ED91FC910190F081E02D60E4A6
:1024D0000995680111E08D8D9E8DEC14FD0429F1A4
:1024E0001032A8F00E94821D69A1062E000C770B05
:1024F0008D8D9E8D0E946D1D8D8D9E8DDC01ED91CB
:10250000FC910190F081E02D60E4099511E08D8D42
:102510009E8DF60161916F01DC01ED91FC910190BE
:10252000F081E02D09951F5FD6CF0E94821D35C036
:10253000EDA5FEA590818BA9892B80830E151F0523
:1025400061F1F80181918F012B8D3C8D232B19F0C6
:102550000E94D40CF3CF28E030E040E8E9A5FAA5CA
:1025600099A9582F542319F05081952B03C05081FD
:10257000909595239083EBA5FCA550819AA9952B66
:102580009083EBA5FCA550819AA990959523908303
:1025900046952150310911F7D1CF8D8D9E8D009731
:1025A00071F04BAD5CAD6DAD7EADDF91CF911F9104
:1025B0000F91FF90EF90DF90CF900C945F1DEFA5EF
:1025C000F8A990818CA9892B80838B8D9C8D892B78
:1025D00051F0DF91CF911F910F91FF90EF90DF901D
:1025E000CF900C94EC0BDF91CF911F910F91FF9046
:1025F000EF90DF90CF900895FC01918D228D892F6F
:1026000090E0805C9F4F821B91098F7399270895FA
:10261000FC01918D828D981731F0828DE80FF11DAC
:10262000858D90E008958FEF9FEF0895FC01918DC7
:10263000828D981761F0828DDF01A80FB11D5D9624
:102640008C91928D9F5F9F73928F90E008958FEF92
:102650009FEF0895FC01538D448D252F30E0842F8A
:1026600090E0821B930B541710F0CF9608950197BA
:10267000089580E394E1892B49F080E090E0892B74
:1026800029F00E94301481110C9400000895FC017F
:10269000848DDF01A80FB11DA35ABF4F2C91848DEB
:1026A00090E001968F739927848FA689B7892C9320
:1026B000A089B1898C91837080648C93938D848D73
:1026C000981306C00288F389E02D80818F7D808376
:1026D0000895EF92FF920F931F93CF93DF93EC0136
:1026E00081E0888F9B8D8C8D981305C0E889F989CE
:1026F000808185FD26C0F62E0B8D10E00F5F1F4FE9
:102700000F731127E02E8C8DE8120CC00FB607FC5A
:10271000FACFE889F989808185FFF5CFCE010E9443
:102720004713F1CF8B8DFE01E80FF11DE35AFF4FE8
:10273000F0829FB7F8940B8FEA89FB8980818062D1
:102740000AC09FB7F894EE89FF896083E889F98908
:1027500080818370806480839FBF81E090E0DF91FF
:10276000CF911F910F91FF90EF900895CF93DF933A
:10277000EC01888D8823C9F0EA89FB89808185FD79
:1027800005C0A889B9898C9186FD0FC00FB607FCDA
:10279000F5CF808185FFF2CFA889B9898C9185FF1B
:1027A000EDCFCE010E944713E7CFDF91CF9108957F
:1027B0001F920F920FB60F9211242F938F939F9316
:1027C000EF93FF93E091EA01F091EB018081E091BA
:1027D000F001F091F10182FD12C090818091F3012E
:1027E0008F5F8F732091F401821751F0E091F30114
:1027F000F0E0E652FE4F958F8093F30101C0808197
:10280000FF91EF919F918F912F910F900FBE0F909D
:102810001F9018951F920F920FB60F9211242F93AD
:102820003F934F935F936F937F938F939F93AF9358
:10283000BF93EF93FF938AED91E00E944713FF91BE
:10284000EF91BF91AF919F918F917F916F915F9128
:102850004F913F912F910F900FBE0F901F901895A1
:102860008AED91E00E94FC1221E0892B09F420E01E
:10287000822F0895EAEDF1E01382128288EE93E050
:10288000A0E0B0E084839583A683B78387E691E0D8
:102890009183808385EC90E09587848784EC90E039
:1028A0009787868780EC90E0918B808B81EC90E01D
:1028B000938B828B82EC90E0958B848B86EC90E0FE
:1028C000978B868B118E128E138E148E0895089519
:1028D00008950E94341E0E9468140E94731BC9E36D
:1028E000D3E10E94EA1B2097E1F30E943913F9CF4C
:1028F000CF92DF92EF92FF920F931F93CF93DF93CC
:102900006C017A018B01C0E0D0E0CE15DF0581F0CB
:10291000D8016D918D01D601ED91FC910190F0816E
:10292000E02DC6010995892B11F02196EECF7E018D
:10293000C701DF91CF911F910F91FF90EF90DF9032
:10294000CF9008956115710579F0FB010190002089
:10295000E9F73197AF01461B570BDC01ED91FC9174
:102960000280F381E02D099480E090E0089565E70E
:1029700071E00C94A2140F931F93CF93DF93EC019B
:102980000E94A2148C01CE010E94B714800F911FE7
:10299000DF91CF911F910F9108951F920F920FB663
:1029A0000F9211242F933F934F935F936F937F93D5
:1029B0008F939F93AF93BF93EF93FF938091780290
:1029C00087FF05C010928500109284001BC02091E3
:1029D0007802022E000C330B8091770290E02817CA
:1029E000390784F480917802082E000C990BFC01C1
:1029F000EE0FFF1F8E0F9F1FFC01E758FD4F8081D8
:102A000086FD15C0809178028F5F809378022091B7
:102A10007802022E000C330B8091770290E0281789
:102A20003907C4F4809178028C3064F113C080912E
:102A30007802082E000C990BFC01EE0FFF1F8E0F81
:102A40009F1FFC01E758FD4F808160E08F730E945B
:102A5000D41ED8CF80918400909185000496803454
:102A60009C4918F480E49CE905C080918400909111
:102A70008500049690938900809388008FEF80935F
:102A800078023BC0209184003091850080917802CB
:102A9000082E000C990BFC01EE0FFF1F8E0F9F1FDD
:102AA000FC01E758FD4F81819281820F931F909323
:102AB00089008093880080917802082E000C990B81
:102AC000FC01EE0FFF1F8E0F9F1FFC01E758FD4F0B
:102AD000808186FF12C080917802082E000C990B2D
:102AE000FC01EE0FFF1F8E0F9F1FFC01E758FD4FEB
:102AF000808161E08F730E94D41EFF91EF91BF919E
:102B0000AF919F918F917F916F915F914F913F9185
:102B10002F910F900FBE0F901F901895FC01909170
:102B200077029C30A0F481E0890F80937702908334
:102B3000892F90E0FC01EE0FFF1F8E0F9F1FFC01FD
:102B4000E758FD4F88EB9BE09283818308958FEFD8
:102B5000808308951F920F920FB60F9211242F9326
:102B60003F934F935F936F937F938F939F93AF9315
:102B7000BF93EF93FF93E091DF02F091E002309773
:102B800009F451C0968DA685B785858591FF04C04F
:102B90009C91892329F447C09C91892309F043C063
:102BA000A389B4899C918589809589238C93868992
:102BB00097890197F1F7608D718DA685B785558549
:102BC00038E020E0CB010197F1F7822F90E0959556
:102BD0008795282F4C91452309F02068315091F7B3
:102BE000868D81FD209580919E0290E001968F73E5
:102BF000992730919D02381749F0A0919E02B0E0CC
:102C0000A156BD4F2C9380939E0203C0868D816098
:102C1000868F828D938D0197F1F7A389B4899C915A
:102C20008589892B8C93FF91EF91BF91AF919F91F3
:102C30008F917F916F915F914F913F912F910F9065
:102C40000FBE0F901F901895CF93CFB7F894809137
:102C5000E402811127C0ECE6FAE08491E8E5FAE0AD
:102C60009491E82FF0E0EE0FFF1FE058F54FA5918B
:102C7000B491EC91E92321F461E08AE00E94D41E32
:102C800061E08AE00E94981E8CB580618CBD8CB595
:102C900080648CBD61E08DE00E94981E61E08BE055
:102CA0000E94981E8091E4028F5F8093E402CFBF60
:102CB000CF9108954F925F926F927F928F929F92E1
:102CC000AF92BF92CF92DF92EF92FF920F931F933A
:102CD000CF93DF9300D000D01F92CDB7DEB78B012A
:102CE00029013A0190910601891721F09F3F09F0CF
:102CF0004DC205C0E9E3FAE024912D8384C080939E
:102D00000601E9E3FAE094919D839F3F09F43EC2F6
:102D1000913009F44DC058F1923009F074C010920E
:102D2000B0001092B1009091B00092609093B0000A
:102D30009091B10091609093B100282F30E0F9019B
:102D4000EE59F54FE491F0E0EE0FFF1FEA58F54F12
:102D5000459154915093E7024093E602F901E25BFA
:102D6000F54FE491E093E50292E09D830BC214BC21
:102D700015BC94B5926094BD95B5916095BD282F12
:102D800030E0F901EE59F54FE491F0E0EE0FFF1F4E
:102D9000EA58F54F459154915093F5024093F4024F
:102DA000F901E25BF54FE491E093F3021D82EAC181
:102DB0001092800010928100909181009860909311
:102DC000810090918100916090938100282F30E0E4
:102DD000F901EE59F54FE491F0E0EE0FFF1FEA58CC
:102DE000F54F459154915093EE024093ED02F90155
:102DF000E25BF54FE491E093EC0261E00E94981EE3
:102E000021E02D8389C02D8127FDC0C161E00E9492
:102E1000981E8D818D7F09F07FC04801A12CB12CB7
:102E200060E072E18AE790E0A50194010E94251F0D
:102E300029833A834B835C8369017A0181E0C81A54
:102E4000D108E108F1089FEFC916D104E104F104AB
:102E500009F008F44EC060E472E48FE090E0A50150
:102E600094010E94251F69017A0181E0C81AD108E6
:102E7000E108F1089D81923009F52FEFC216D104C7
:102E8000E104F10409F008F444C160E970ED83E065
:102E900090E0A50194010E94251F69017A0181E05B
:102EA000C81AD108E108F1089FEFC916D104E1045E
:102EB000F10411F008F0BAC083E027C02FEFC2166A
:102EC000D104E104F104B9F0B0F068E478EE81E0F7
:102ED00090E0A50194010E94251F69017A0181E01B
:102EE000C81AD108E108F1089D81992309F413C19A
:102EF000DCC081E001C082E09D81911106C095B5E2
:102F0000987F892B85BD44C085E09091B100987F62
:102F1000892B8093B1003CC04801A12CB12C60E00A
:102F200072E18AE790E0A50194010E94251F6901E2
:102F30007A0181E0C81AD108E108F108C114D1046E
:102F400091E0E906F10488F068E478EE81E090E031
:102F5000A50194010E94251F69017A0181E0C81A28
:102F6000D108E108F10883E001C081E09D81913042
:102F700079F490918100987F892B8093810041148E
:102F800051046104710449F42FEF3FEFA9012CC0F3
:102F9000411451046104710471F0D801AA0FBB1FE0
:102FA000A30192010E94531F28EE33E040E050E05D
:102FB0000E94031F03C02FEF3FEFA9018D818130D5
:102FC00099F0823019F18111E1C0C7BC2093F6025B
:102FD0003093F7024093F8025093F90280916E000B
:102FE000826080936E00D2C0D0928900C092880027
:102FF0002093EF023093F0024093F1025093F202DB
:1030000080916F00826080936F00C0C0C092B30057
:103010002093E8023093E9024093EA025093EB02D6
:1030200080917000826080937000B0C068E478EE98
:1030300081E090E0A50194010E94251F69017A01B9
:1030400091E0C91AD108E108F1082FEFC216D104A6
:10305000E104F10441F138F164E274EF80E090E0C2
:10306000A50194010E94251F69017A0181E0C81A17
:10307000D108E108F1089FEFC916D104E104F10479
:1030800009F008F441CF62E17AE780E090E0A50121
:1030900094010E94251F69017A0181E0C81AD108B4
:1030A000E108F10819C084E030CF2FEFC216D10437
:1030B000E104F10409F008F463C062E17AE780E01A
:1030C00090E0A50194010E94251F69017A0191E019
:1030D000C91AD108E108F1088FEFC816D104E1043C
:1030E000F104A9F0A0F089819A81AB81BC812AE02A
:1030F000B595A795979587952A95D1F76C017D0190
:1031000021E0C21AD108E108F10887E0FECE86E08E
:10311000FCCE82E0FACE8FEFC816D104E104F104B0
:1031200069F160F162E17AE780E090E0A501940145
:103130000E94251F69017A0191E0C91AD108E108AE
:10314000F1082FEFC216D104E104F104A9F0A0F0B8
:1031500089819A81AB81BC813AE0B595A795979515
:1031600087953A95D1F76C017D0121E0C21AD1080B
:10317000E108F10885E0C3CE84E0C1CE83E0BFCE94
:1031800084E0BACE61E00E94981E47CE0F900F9067
:103190000F900F900F90DF91CF911F910F91FF90A3
:1031A000EF90DF90CF90BF90AF909F908F907F90E7
:1031B0006F905F904F900895813039F018F0823011
:1031C00051F0089510926E00089580916F008D7FE8
:1031D00080936F000895809170008D7F80937000C0
:1031E00081E08093B0008091B100887F84608093FB
:1031F000B1001092B3000895CF93C82F80910601BB
:10320000C81307C0E9E3FAE084919FEF90930601A9
:1032100001C08FEF0E94DC1860E08C2FCF910C94DE
:10322000D41E1F920F920FB60F9211242F933F932B
:103230004F935F936F937F938F939F93AF93BF93BE
:10324000EF93FF938091E8029091E902A091EA0246
:10325000B091EB02892B8A2B8B2B51F19091E502D7
:10326000E091E602F091E7028081892780838091D6
:10327000E8029091E902A091EA02B091EB021816DF
:1032800019061A061B06C4F48091E8029091E9021F
:10329000A091EA02B091EB020197A109B1098093D4
:1032A000E8029093E902A093EA02B093EB0204C013
:1032B000809106010E94FC18FF91EF91BF91AF91A0
:1032C0009F918F917F916F915F914F913F912F913E
:1032D0000F900FBE0F901F9018951092670381E01A
:1032E000809365031092640361E082E10E94D41E22
:1032F00061E083E10E94D41EE9EBF0E080818E7FE3
:10330000808380818D7F808388E48093B80085E40A
:103310008093BC0008959B01AC0160E074E284EFEF
:1033200090E00E94031FDA01C9014097A109B10989
:10333000B695A795979587958093B80008950F93B4
:10334000413208F04AC0909167039111FCCF32E0FE
:1033500030936703009365033FEF3093FA021092B6
:103360003F0340933E03562FA0E4B3E0FB013E2F02
:10337000351B341718F431913D93F9CF1092660341
:1033800030916603880F832B8093660380916403DA
:10339000813061F410926403809166038093BB00D6
:1033A0008091BC0083FDF8CF85EC01C085EE809351
:1033B000BC00222321F0809167038230D1F38091F9
:1033C000FA028F3F79F08091FA02803241F08091C9
:1033D000FA02803331F094E005C091E003C092E03E
:1033E00001C093E0892F0F91089540911C03262F6F
:1033F00030E0240F311D21323105DCF420916703C8
:103400002430C9F4FC0180E090E0861758F4309134
:103410001C032191DC01A25EBC4FA30FB11D2C93B4
:103420000196F3CF80911C03680F60931C0380E02A
:10343000089581E0089582E0089590936103809358
:10344000600308959093630380936203089585ED6C
:103450008093BC008091BC0084FDFCCF1092670378
:10346000089585EC8093BC001092670308951F9225
:103470000F920FB60F9211242F933F934F935F93A8
:103480006F937F938F939F93AF93BF93EF93FF932C
:103490008091B900887F803609F49EC078F5883223
:1034A00009F45DC090F4803109F456C038F48823E3
:1034B00009F4F5C0883009F44FC0F5C0883109F42B
:1034C0004EC0803209F45FC0EEC0803409F46AC097
:1034D00058F4803309F457C0883309F0E4C080936E
:1034E000FA020E94311ADFC0803509F44FC08835D6
:1034F00009F45DC0883409F0D6C0D3C0883909F416
:10350000C4C0A8F4883709F467C038F4883609F4D1
:1035100063C0803709F460C0C6C0883809F4B5C0FC
:10352000803909F45FC0803809F0BDC05BC0803BC2
:1035300009F483C038F4803A09F466C0883A09F483
:103540007CC0B1C0803C09F4A4C0883C09F4A1C08F
:10355000883B09F487C0A7C08091660310C0909192
:103560003F0380913E03981770F5E0913F0381E09F
:103570008E0F80933F03F0E0E05CFC4F80818093EE
:10358000BB0085EC83C08093FA028BC0E0913F03BF
:1035900081E08E0F80933F038091BB00F0E0E05C00
:1035A000FC4F808390913F0380913E036BC0E0917C
:1035B0003F0381E08E0F80933F038091BB00F0E0DA
:1035C000E05CFC4F80838091650381116AC081E0DB
:1035D0008093640384EA5EC083E080936703109263
:1035E000FB02CFCF8091FB02803208F04EC0E09109
:1035F000FB0281E08E0F8093FB028091BB00F0E024
:10360000E450FD4F8083BDCF0E94311A8091FB02B0
:10361000803230F4E091FB02F0E0E450FD4F108284
:103620006091FB0270E0E0916003F09161038CEF28
:1036300092E009951092FB0236C084E08093670304
:1036400010921D0310921C03E0916203F09163033A
:10365000099580911C03811105C081E080931C03B2
:1036600010921E03E0911D0381E08E0F80931D03D5
:10367000F0E0E25EFC4F80818093BB0090911D03DF
:1036800080911C03981708F47CCF85E88093BC00D8
:103690000AC085EC8093BC001092670304C01092AE
:1036A000FA020E94271AFF91EF91BF91AF919F916B
:1036B0008F917F916F915F914F913F912F910F90DB
:1036C0000FBE0F901F90189524E630E040E050E0C8
:1036D00068EE73E083E00E945A1666E970E080E0CD
:1036E00090E00C94F81DEF92FF920F931F93CF93ED
:1036F000DF9361E084E00E94981E61E089E00E940F
:10370000981E61E088E00E94981E61E087E00E94B8
:10371000981E61E085E00E94981E61E086E00E94AC
:10372000981E60E082E00E94981E01E021E04CE3D8
:1037300062E08AE793E00E94920E8AE793E00E949B
:10374000740ECAE7D3E001E010E0198B088B1B8AE6
:103750001A8A8EE1E82EF12CFD86EC868AE090E054
:103760009F878E8762E0CE010E94E90B66EA71E0D6
:10377000CE010E94BB148FE090E09D878C87FF866E
:10378000EE866CEA71E0CE010E94BB1461E0CE01CE
:103790000E94E90B1D861C8683E390E09F878E873D
:1037A000198A188A1B8B0A8B64EB71E0CE010E9488
:1037B000BB14198B088B1B8A1A8ACE010E940E1229
:1037C0000E94641BDF91CF911F910F91FF90EF90AA
:1037D0000C94641B08958F929F92AF92BF92CF92E8
:1037E000DF92EF92FF920F9380EA882E86E8982E60
:1037F000AA24A394B12C90E8C92E9AE1D92E96E080
:10380000E92EF12C0FEF29EB33E040E460E88AE782
:1038100093E00E94DB0C87E793E00E948E1584E71B
:1038200093E00E948E1581E793E00E948E158EE64C
:1038300093E00E948E158BE693E00E948E1588E639
:1038400093E00F91FF90EF90DF90CF90BF90AF90FB
:103850009F908F900C948E158AE793E00C94260D20
:1038600008951F920F920FB60F9211242F933F933A
:103870004F935F936F937F938F939F93AF93BF9378
:10388000EF93FF93E0910701F09108010995FF91F3
:10389000EF91BF91AF919F918F917F916F915F91C8
:1038A0004F913F912F910F900FBE0F901F90189541
:1038B0001F920F920FB60F9211242F933F934F93A5
:1038C0005F936F937F938F939F93AF93BF93EF9388
:1038D000FF93E0910901F0910A010995FF91EF91A1
:1038E000BF91AF919F918F917F916F915F914F9118
:1038F0003F912F910F900FBE0F901F9018958091C0
:10390000ED0390E02091EE03821B910908959091C0
:10391000EE038091ED03981750F4E92FF0E0E151A8
:10392000FC4F208130E09F5F9093EE0302C02FEFA9
:103930003FEFC9010895E091EE038091ED03E81790
:1039400030F4F0E0E151FC4F808190E008958FEF7A
:103950009FEF08950895CF93DF93EC01E091C503A5
:10396000F091C6033097F1F09091EE038091ED0352
:103970009817C0F090E0292F30E02617370754F44D
:10398000DE01A20FB31F4C91D901A151BC4F4C9342
:103990009F5FF1CF1092EE036093ED03CB01DF91B7
:1039A000CF910994DF91CF910895E091C703F091F1
:1039B000C803309729F01092CB031092CA030994E0
:1039C0000895CF92DF92EF92FF920F931F93CF93C0
:1039D000DF937C01CB018A012091C903222389F066
:1039E000EB016B01C40ED51ECC15DD0569F06991A4
:1039F000D701ED91FC910190F081E02DC70109956F
:103A0000F3CF642F0E94F519C801DF91CF911F9168
:103A10000F91FF90EF90DF90CF900895CF93DF93B9
:103A20001F92CDB7DEB769832091C9032223D1F05D
:103A30002091CA03203240F021E030E0FC013383C2
:103A4000228380E090E015C08091CB03E82FF0E066
:103A5000E453FC4F998190838F5F8093CB038093D5
:103A6000CA0305C061E0CE0101960E94F51981E00C
:103A700090E00F90DF91CF910895FC0113821282A4
:103A800088EE93E0A0E0B0E084839583A683B783BB
:103A90008CEC91E09183808308951092EE03109254
:103AA000ED031092CB031092CA030E946D1985EDAD
:103AB0009CE10E94221A8BEA9CE10C941D1ACB0116
:103AC000BA010C948B1981E08093C9036093EC03D5
:103AD0001092CB031092CA0308950C94631D0F93A8
:103AE000062F21E04091CA036CEC73E08091EC0357
:103AF0000E949F191092CB031092CA031092C9031F
:103B00000F91089561E00C946F1D89EB93E00C9484
:103B10003D1D1F920F920FB60F9211242F933F93CA
:103B20008F939F93AF93BF93809110049091110452
:103B3000A0911204B091130430910F0423E0230FDD
:103B40002D3720F40196A11DB11D05C026E8230FD5
:103B50000296A11DB11D20930F0480931004909331
:103B60001104A0931204B093130480911404909153
:103B70001504A0911604B09117040196A11DB11D62
:103B80008093140490931504A0931604B093170423
:103B9000BF91AF919F918F913F912F910F900FBE49
:103BA0000F901F9018953FB7F8948091140490914E
:103BB0001504A0911604B091170426B5A89B05C062
:103BC0002F3F19F00196A11DB11D3FBFBA2FA92F9C
:103BD000982F8827820F911DA11DB11DBC01CD0119
:103BE00042E0660F771F881F991F4A95D1F7089505
:103BF0008F929F92AF92BF92CF92DF92EF92FF92FD
:103C00006B017C010E94D31D4B015C01C114D104E6
:103C1000E104F10401F10E9467140E94D31DDC014C
:103C2000CB0188199909AA09BB09883E9340A105CF
:103C3000B10560F321E0C21AD108E108F10888EE6D
:103C4000880E83E0981EA11CB11CC114D104E104AC
:103C5000F10419F7DBCFFF90EF90DF90CF90BF908A
:103C6000AF909F908F900895789484B5826084BDC2
:103C700084B5816084BD85B5826085BD85B5816070
:103C800085BDEEE6F0E0808181608083E1E8F0E0D0
:103C90001082808182608083808181608083E0E8FF
:103CA000F0E0808181608083E1EBF0E080818460DE
:103CB0008083E0EBF0E0808181608083EAE7F0E0E0
:103CC0008081846080838081826080838081816044
:103CD00080838081806880831092C1000895833042
:103CE00081F028F4813099F08230A1F00895873076
:103CF000A9F08830B9F08430D1F4809180008F7DB4
:103D000003C0809180008F7780938000089584B5F0
:103D10008F7702C084B58F7D84BD08958091B000F7
:103D20008F7703C08091B0008F7D8093B00008959D
:103D3000CF93DF9390E0FC01E25BF54F2491FC010F
:103D4000EE59F54F8491882361F190E0880F991F17
:103D5000FC01E058F54FC591D491FC01EA58F54FAC
:103D6000A591B491611109C09FB7F89488812095FD
:103D700082238883EC912E230BC0623061F49FB7BD
:103D8000F8948881322F309583238883EC912E2BF1
:103D90002C939FBF06C08FB7F894E8812E2B288301
:103DA0008FBFDF91CF9108951F93CF93DF93282F7B
:103DB00030E0F901E65CF54F8491F901E25BF54FE3
:103DC000D491F901EE59F54FC491CC23C1F0162FCF
:103DD00081110E946F1EEC2FF0E0EE0FFF1FEA58DA
:103DE000F54FA591B4919FB7F894111104C08C912F
:103DF000D095D82302C0EC91DE2BDC939FBFDF91DE
:103E0000CF911F910895A1E21A2EAA1BBB1BFD01A1
:103E10000DC0AA1FBB1FEE1FFF1FA217B307E407A9
:103E2000F50720F0A21BB30BE40BF50B661F771F01
:103E3000881F991F1A9469F76095709580959095E1
:103E40009B01AC01BD01CF010895052E97FB1EF427
:103E500000940E943C1F57FD07D00E94031F07FCDF
:103E600003D04EF40C943C1F50954095309521950D
:103E70003F4F4F4F5F4F0895909580957095619596
:103E80007F4F8F4F9F4F0895A29FB001B39FC001F6
:103E9000A39F700D811D1124911DB29F700D811D76
:103EA0001124911D08950E94441FA59F900DB49F59
:103EB000900DA49F800D911D11240895EE0FFF1FFA
:103EC0000590F491E02D09940F931F93CF93DF9306
:103ED0008230910510F482E090E0E0911A04F091B4
:103EE0001B0420E030E0A0E0B0E0309719F1408101
:103EF00051810281138148175907C8F0841795072B
:103F000069F4109731F012960C93129713961C9344
:103F100027C000931A0410931B0422C021153105F9
:103F200019F04217530718F49A01BD01EF01DF01A0
:103F3000F801DBCF21153105F9F0281B390B2430AE
:103F4000310580F48A819B816115710521F0FB01A7
:103F50009383828304C090931B0480931A04FE0110
:103F6000329644C0FE01E20FF31F819391932250D9
:103F70003109398328833AC02091180430911904FB
:103F8000232B41F420910201309103013093190455
:103F90002093180420910001309101012115310571
:103FA00041F42DB73EB74091040150910501241B07
:103FB000350BE0911804F0911904E217F307A0F40F
:103FC0002E1B3F0B2817390778F0AC014E5F5F4F6F
:103FD0002417350748F04E0F5F1F50931904409384
:103FE00018048193919302C0E0E0F0E0CF01DF91EB
:103FF000CF911F910F910895CF93DF93009709F40C
:1040000081C0FC01329713821282A0911A04B091F0
:104010001B04109781F420813181820F931F20911E
:104020001804309119042817390751F5F093190431
:10403000E093180467C0ED0120E030E0CE17DF0701
:1040400040F44A815B819E0141155105F1F0EA017E
:10405000F5CFD383C28340815181840F951FC81748
:10406000D90759F488819981840F951F029691830D
:1040700080838A819B81938382832115310529F472
:10408000F0931B04E0931A043DC0E901FB83EA832B
:1040900049915991C40FD51FEC17FD0761F4808138
:1040A0009181840F951F0296E9019983888382810B
:1040B00093819B838A83E0E0F0E012968D919C913E
:1040C0001397009719F0FD01DC01F7CF8D919C91BA
:1040D00011979D012E5F3F4F820F931F209118046F
:1040E000309119042817390769F4309729F4109290
:1040F0001B0410921A0402C013821282B093190496
:10410000A0931804DF91CF91089581E090E0F89496
:104110000C949120DC0101C06D9341505040E0F7B8
:10412000089515E0C8E4D5E004C0FE010E945E1FBA
:0C4130002196C934D107C9F7F894FFCFDD
:10413C0000001C048000FF301C301C000000000636
:10414C000B78147505780573055A062B064A06324A
:10415C00063E0679055A06FC07FB075B069406CD5E
:10416C000612072F079C0700000000060B78147539
:10417C00057805FD0B5A062B064A0632063E0679D3
:10418C00055A06FC07930DCC118B11CD0612072F87
:10419C00079C0700000000691378142A13B613FC5F
:1041AC0012161308130D0A006E616E00696E66001C
:1041BC006F76660050726573732100427574746F6C
:1041CC006E20443200746F207374617274207072AC
:1041DC006F6772616D004C6F747573004E616E6F1A
:1041EC00426F7400206C6F7475732D617264756905
:1041FC00626F742E636F6D00000000000E1DE11CD9
:0A420C007505AA1C7F1C871C9B1C73
:00000001FF
